{
  "contractName": "Main",
  "abi": [
    {
      "constant": false,
      "inputs": [],
      "name": "renounceOwnership",
      "outputs": [],
      "payable": false,
      "stateMutability": "nonpayable",
      "type": "function",
      "signature": "0x715018a6"
    },
    {
      "constant": true,
      "inputs": [],
      "name": "owner",
      "outputs": [
        {
          "name": "",
          "type": "address"
        }
      ],
      "payable": false,
      "stateMutability": "view",
      "type": "function",
      "signature": "0x8da5cb5b"
    },
    {
      "constant": true,
      "inputs": [],
      "name": "isOwner",
      "outputs": [
        {
          "name": "",
          "type": "bool"
        }
      ],
      "payable": false,
      "stateMutability": "view",
      "type": "function",
      "signature": "0x8f32d59b"
    },
    {
      "constant": false,
      "inputs": [
        {
          "name": "newOwner",
          "type": "address"
        }
      ],
      "name": "transferOwnership",
      "outputs": [],
      "payable": false,
      "stateMutability": "nonpayable",
      "type": "function",
      "signature": "0xf2fde38b"
    },
    {
      "anonymous": false,
      "inputs": [
        {
          "indexed": true,
          "name": "user",
          "type": "address"
        },
        {
          "indexed": false,
          "name": "x",
          "type": "uint256"
        },
        {
          "indexed": false,
          "name": "y",
          "type": "uint256"
        }
      ],
      "name": "KeyRegistered",
      "type": "event",
      "signature": "0xe75c69e03d16578859c2d6970c59af779cdbb15064bd20fb13b8fb6d59450726"
    },
    {
      "anonymous": false,
      "inputs": [
        {
          "indexed": true,
          "name": "user",
          "type": "address"
        },
        {
          "indexed": false,
          "name": "x",
          "type": "uint256"
        },
        {
          "indexed": false,
          "name": "y",
          "type": "uint256"
        },
        {
          "indexed": true,
          "name": "token",
          "type": "address"
        },
        {
          "indexed": false,
          "name": "amount",
          "type": "uint128"
        }
      ],
      "name": "Deposit",
      "type": "event",
      "signature": "0x508982b75b84bc9a8a2967d1c2cba38016d566bef29221f597ce59270a3b9b47"
    },
    {
      "anonymous": false,
      "inputs": [
        {
          "indexed": true,
          "name": "user",
          "type": "address"
        },
        {
          "indexed": true,
          "name": "token",
          "type": "address"
        },
        {
          "indexed": false,
          "name": "amount",
          "type": "uint128"
        }
      ],
      "name": "Withdraw",
      "type": "event",
      "signature": "0xf7c94207a71e9e28815faa70ca42021f47a1d25c25fbec0973eb7beb92f42192"
    },
    {
      "anonymous": false,
      "inputs": [
        {
          "indexed": false,
          "name": "oldState",
          "type": "uint256"
        },
        {
          "indexed": false,
          "name": "newState",
          "type": "uint256"
        }
      ],
      "name": "StateUpdated",
      "type": "event",
      "signature": "0x210cbb60935822c957f36bfad9f082e34516b470d608565d6e21abfd2d771beb"
    },
    {
      "anonymous": false,
      "inputs": [
        {
          "indexed": false,
          "name": "oldState",
          "type": "uint256"
        },
        {
          "indexed": false,
          "name": "rejectedState",
          "type": "uint256"
        }
      ],
      "name": "StateRejected",
      "type": "event",
      "signature": "0x91def8b0fd14ae62d6671c9fccdddab96f5ac9c89c69ecfd897a1a5f9b9f33be"
    },
    {
      "anonymous": false,
      "inputs": [
        {
          "indexed": true,
          "name": "previousOwner",
          "type": "address"
        },
        {
          "indexed": true,
          "name": "newOwner",
          "type": "address"
        }
      ],
      "name": "OwnershipTransferred",
      "type": "event",
      "signature": "0x8be0079c531659141344cd1fd0a4f28419497f9722a3daafe3b4186f6b6457e0"
    },
    {
      "constant": false,
      "inputs": [
        {
          "name": "x",
          "type": "uint256"
        },
        {
          "name": "y",
          "type": "uint256"
        }
      ],
      "name": "registerKey",
      "outputs": [],
      "payable": false,
      "stateMutability": "nonpayable",
      "type": "function",
      "signature": "0x41a89c57"
    },
    {
      "constant": true,
      "inputs": [
        {
          "name": "_user",
          "type": "address"
        }
      ],
      "name": "getKey",
      "outputs": [
        {
          "name": "",
          "type": "uint256"
        },
        {
          "name": "",
          "type": "uint256"
        }
      ],
      "payable": false,
      "stateMutability": "view",
      "type": "function",
      "signature": "0x93790f44"
    },
    {
      "constant": true,
      "inputs": [],
      "name": "getMyKey",
      "outputs": [
        {
          "name": "",
          "type": "uint256"
        },
        {
          "name": "",
          "type": "uint256"
        }
      ],
      "payable": false,
      "stateMutability": "view",
      "type": "function",
      "signature": "0x9798fd6e"
    },
    {
      "constant": false,
      "inputs": [
        {
          "name": "_token",
          "type": "address"
        },
        {
          "name": "_amount",
          "type": "uint128"
        }
      ],
      "name": "depositToken",
      "outputs": [],
      "payable": false,
      "stateMutability": "nonpayable",
      "type": "function",
      "signature": "0xad895d7e"
    },
    {
      "constant": false,
      "inputs": [
        {
          "name": "_token",
          "type": "address"
        },
        {
          "name": "_recipient",
          "type": "address"
        },
        {
          "name": "_amount",
          "type": "uint128"
        },
        {
          "name": "_proof",
          "type": "uint256"
        },
        {
          "name": "_newState",
          "type": "uint256"
        }
      ],
      "name": "withdrawToken",
      "outputs": [],
      "payable": false,
      "stateMutability": "nonpayable",
      "type": "function",
      "signature": "0xae9dc5e6"
    },
    {
      "constant": true,
      "inputs": [],
      "name": "getState",
      "outputs": [
        {
          "name": "",
          "type": "uint256"
        }
      ],
      "payable": false,
      "stateMutability": "view",
      "type": "function",
      "signature": "0x1865c57d"
    },
    {
      "constant": false,
      "inputs": [
        {
          "name": "_newState",
          "type": "uint256"
        }
      ],
      "name": "setState",
      "outputs": [],
      "payable": false,
      "stateMutability": "nonpayable",
      "type": "function",
      "signature": "0xa9e966b7"
    },
    {
      "constant": false,
      "inputs": [
        {
          "name": "a",
          "type": "uint256[2]"
        },
        {
          "name": "b",
          "type": "uint256[2][2]"
        },
        {
          "name": "c",
          "type": "uint256[2]"
        },
        {
          "name": "_newState",
          "type": "uint256"
        }
      ],
      "name": "verifyDeposit",
      "outputs": [
        {
          "name": "",
          "type": "bool"
        }
      ],
      "payable": false,
      "stateMutability": "nonpayable",
      "type": "function",
      "signature": "0x6c246285"
    },
    {
      "constant": false,
      "inputs": [
        {
          "name": "_newAddress",
          "type": "address"
        }
      ],
      "name": "setDepositVerifier",
      "outputs": [],
      "payable": false,
      "stateMutability": "nonpayable",
      "type": "function",
      "signature": "0x2c6ce78b"
    },
    {
      "constant": false,
      "inputs": [
        {
          "name": "_newAddress",
          "type": "address"
        }
      ],
      "name": "setTransferVerifier",
      "outputs": [],
      "payable": false,
      "stateMutability": "nonpayable",
      "type": "function",
      "signature": "0xec845f96"
    },
    {
      "constant": false,
      "inputs": [
        {
          "name": "_newAddress",
          "type": "address"
        }
      ],
      "name": "setWithdrawVerifier",
      "outputs": [],
      "payable": false,
      "stateMutability": "nonpayable",
      "type": "function",
      "signature": "0xb0ca3126"
    }
  ],
  "bytecode": "0x6080604052336000806101000a81548173ffffffffffffffffffffffffffffffffffffffff021916908373ffffffffffffffffffffffffffffffffffffffff1602179055506000809054906101000a900473ffffffffffffffffffffffffffffffffffffffff1673ffffffffffffffffffffffffffffffffffffffff16600073ffffffffffffffffffffffffffffffffffffffff167f8be0079c531659141344cd1fd0a4f28419497f9722a3daafe3b4186f6b6457e060405160405180910390a3611e07806100cf6000396000f3fe6080604052600436106100db576000357c0100000000000000000000000000000000000000000000000000000000900463ffffffff1680631865c57d146100e05780632c6ce78b1461010b57806341a89c571461015c5780636c246285146101a1578063715018a6146102f05780638da5cb5b146103075780638f32d59b1461035e57806393790f441461038d5780639798fd6e146103f9578063a9e966b71461042b578063ad895d7e14610466578063ae9dc5e6146104d3578063b0ca312614610574578063ec845f96146105c5578063f2fde38b14610616575b600080fd5b3480156100ec57600080fd5b506100f5610667565b6040518082815260200191505060405180910390f35b34801561011757600080fd5b5061015a6004803603602081101561012e57600080fd5b81019080803573ffffffffffffffffffffffffffffffffffffffff169060200190929190505050610671565b005b34801561016857600080fd5b5061019f6004803603604081101561017f57600080fd5b8101908080359060200190929190803590602001909291905050506106c8565b005b3480156101ad57600080fd5b506102d660048036036101208110156101c557600080fd5b8101908080604001906002806020026040519081016040528092919082600260200280828437600081840152601f19601f82011690508083019250505050505091929192908060800190600280602002604051908101604052809291906000905b8282101561027a578382604002016002806020026040519081016040528092919082600260200280828437600081840152601f19601f82011690508083019250505050505081526020019060010190610226565b50505050919291929080604001906002806020026040519081016040528092919082600260200280828437600081840152601f19601f82011690508083019250505050505091929192908035906020019092919050505061078d565b604051808215151515815260200191505060405180910390f35b3480156102fc57600080fd5b50610305610ae9565b005b34801561031357600080fd5b5061031c610bbb565b604051808273ffffffffffffffffffffffffffffffffffffffff1673ffffffffffffffffffffffffffffffffffffffff16815260200191505060405180910390f35b34801561036a57600080fd5b50610373610be4565b604051808215151515815260200191505060405180910390f35b34801561039957600080fd5b506103dc600480360360208110156103b057600080fd5b81019080803573ffffffffffffffffffffffffffffffffffffffff169060200190929190505050610c3b565b604051808381526020018281526020019250505060405180910390f35b34801561040557600080fd5b5061040e610ccd565b604051808381526020018281526020019250505060405180910390f35b34801561043757600080fd5b506104646004803603602081101561044e57600080fd5b8101908080359060200190929190505050610d5e565b005b34801561047257600080fd5b506104d16004803603604081101561048957600080fd5b81019080803573ffffffffffffffffffffffffffffffffffffffff16906020019092919080356fffffffffffffffffffffffffffffffff169060200190929190505050610d7b565b005b3480156104df57600080fd5b50610572600480360360a08110156104f657600080fd5b81019080803573ffffffffffffffffffffffffffffffffffffffff169060200190929190803573ffffffffffffffffffffffffffffffffffffffff16906020019092919080356fffffffffffffffffffffffffffffffff1690602001909291908035906020019092919080359060200190929190505050611456565b005b34801561058057600080fd5b506105c36004803603602081101561059757600080fd5b81019080803573ffffffffffffffffffffffffffffffffffffffff169060200190929190505050611887565b005b3480156105d157600080fd5b50610614600480360360208110156105e857600080fd5b81019080803573ffffffffffffffffffffffffffffffffffffffff1690602001909291905050506118de565b005b34801561062257600080fd5b506106656004803603602081101561063957600080fd5b81019080803573ffffffffffffffffffffffffffffffffffffffff169060200190929190505050611935565b005b6000600654905090565b610679610be4565b151561068457600080fd5b80600760006101000a81548173ffffffffffffffffffffffffffffffffffffffff021916908373ffffffffffffffffffffffffffffffffffffffff16021790555050565b604080519081016040528083815260200182815250600260003373ffffffffffffffffffffffffffffffffffffffff1673ffffffffffffffffffffffffffffffffffffffff16815260200190815260200160002060008201518160000155602082015181600101559050503373ffffffffffffffffffffffffffffffffffffffff167fe75c69e03d16578859c2d6970c59af779cdbb15064bd20fb13b8fb6d594507268383604051808381526020018281526020019250505060405180910390a25050565b6000610797610be4565b15156107a257600080fd5b60006107ba600260035461195490919063ffffffff16565b90506107c4611db7565b6101806040519081016040528060065481526020016003548152602001600460008154811015156107f157fe5b90600052602060002001600081548110151561080957fe5b906000526020600020015481526020016004600081548110151561082957fe5b90600052602060002001600181548110151561084157fe5b906000526020600020015481526020016004600181548110151561086157fe5b90600052602060002001600081548110151561087957fe5b906000526020600020015481526020016004600181548110151561089957fe5b9060005260206000200160018154811015156108b157fe5b90600052602060002001548152602001600560008154811015156108d157fe5b90600052602060002001548152602001600560018154811015156108f157fe5b906000526020600020015481526020016001815260200160018152602001858152602001838152509050600760009054906101000a900473ffffffffffffffffffffffffffffffffffffffff1673ffffffffffffffffffffffffffffffffffffffff16638cbac0fa888888856040518563ffffffff167c01000000000000000000000000000000000000000000000000000000000281526004018085600260200280838360005b838110156109b3578082015181840152602081019050610998565b505050509050018460026000925b81841015610a075782846020020151600260200280838360005b838110156109f65780820151818401526020810190506109db565b5050505090500192600101926109c1565b9250505083600260200280838360005b83811015610a32578082015181840152602081019050610a17565b5050505090500182600c60200280838360005b83811015610a60578082015181840152602081019050610a45565b5050505090500194505050505060206040518083038186803b158015610a8557600080fd5b505afa158015610a99573d6000803e3d6000fd5b505050506040513d6020811015610aaf57600080fd5b81019080805190602001909291905050501515610acb57600080fd5b610ad56000611975565b610adf6001611975565b5050949350505050565b610af1610be4565b1515610afc57600080fd5b600073ffffffffffffffffffffffffffffffffffffffff166000809054906101000a900473ffffffffffffffffffffffffffffffffffffffff1673ffffffffffffffffffffffffffffffffffffffff167f8be0079c531659141344cd1fd0a4f28419497f9722a3daafe3b4186f6b6457e060405160405180910390a360008060006101000a81548173ffffffffffffffffffffffffffffffffffffffff021916908373ffffffffffffffffffffffffffffffffffffffff160217905550565b60008060009054906101000a900473ffffffffffffffffffffffffffffffffffffffff16905090565b60008060009054906101000a900473ffffffffffffffffffffffffffffffffffffffff1673ffffffffffffffffffffffffffffffffffffffff163373ffffffffffffffffffffffffffffffffffffffff1614905090565b600080600260008473ffffffffffffffffffffffffffffffffffffffff1673ffffffffffffffffffffffffffffffffffffffff16815260200190815260200160002060000154600260008573ffffffffffffffffffffffffffffffffffffffff1673ffffffffffffffffffffffffffffffffffffffff1681526020019081526020016000206001015491509150915091565b600080600260003373ffffffffffffffffffffffffffffffffffffffff1673ffffffffffffffffffffffffffffffffffffffff16815260200190815260200160002060000154600260003373ffffffffffffffffffffffffffffffffffffffff1673ffffffffffffffffffffffffffffffffffffffff16815260200190815260200160002060010154915091509091565b610d66610be4565b1515610d7157600080fd5b8060068190555050565b6000600160003373ffffffffffffffffffffffffffffffffffffffff1673ffffffffffffffffffffffffffffffffffffffff16815260200190815260200160002060008473ffffffffffffffffffffffffffffffffffffffff1673ffffffffffffffffffffffffffffffffffffffff16815260200190815260200160002060009054906101000a90046fffffffffffffffffffffffffffffffff166fffffffffffffffffffffffffffffffff16141515610ec3576040517f08c379a00000000000000000000000000000000000000000000000000000000081526004018080602001828103825260238152602001807f4f6e6c79206f6e65206465706f7369742070657220746f6b656e20666f72206e81526020017f6f7721000000000000000000000000000000000000000000000000000000000081525060400191505060405180910390fd5b806fffffffffffffffffffffffffffffffff168273ffffffffffffffffffffffffffffffffffffffff1663dd62ed3e33306040518363ffffffff167c0100000000000000000000000000000000000000000000000000000000028152600401808373ffffffffffffffffffffffffffffffffffffffff1673ffffffffffffffffffffffffffffffffffffffff1681526020018273ffffffffffffffffffffffffffffffffffffffff1673ffffffffffffffffffffffffffffffffffffffff1681526020019250505060206040518083038186803b158015610fa357600080fd5b505afa158015610fb7573d6000803e3d6000fd5b505050506040513d6020811015610fcd57600080fd5b810190808051906020019092919050505010151515611054576040517f08c379a00000000000000000000000000000000000000000000000000000000081526004018080602001828103825260148152602001807f4e6f7420656e6f75676820616c6c6f77616e636500000000000000000000000081525060200191505060405180910390fd5b611123816fffffffffffffffffffffffffffffffff16600160003373ffffffffffffffffffffffffffffffffffffffff1673ffffffffffffffffffffffffffffffffffffffff16815260200190815260200160002060008573ffffffffffffffffffffffffffffffffffffffff1673ffffffffffffffffffffffffffffffffffffffff16815260200190815260200160002060009054906101000a90046fffffffffffffffffffffffffffffffff166fffffffffffffffffffffffffffffffff1661195490919063ffffffff16565b5061119d600260003373ffffffffffffffffffffffffffffffffffffffff1673ffffffffffffffffffffffffffffffffffffffff16815260200190815260200160002060408051908101604052908160008201548152602001600182015481525050826fffffffffffffffffffffffffffffffff16611a7e565b8173ffffffffffffffffffffffffffffffffffffffff166323b872dd3330846040518463ffffffff167c0100000000000000000000000000000000000000000000000000000000028152600401808473ffffffffffffffffffffffffffffffffffffffff1673ffffffffffffffffffffffffffffffffffffffff1681526020018373ffffffffffffffffffffffffffffffffffffffff1673ffffffffffffffffffffffffffffffffffffffff168152602001826fffffffffffffffffffffffffffffffff1681526020019350505050602060405180830381600087803b15801561128657600080fd5b505af115801561129a573d6000803e3d6000fd5b505050506040513d60208110156112b057600080fd5b81019080805190602001909291905050501515611335576040517f08c379a00000000000000000000000000000000000000000000000000000000081526004018080602001828103825260158152602001807f546f6b656e207472616e73666572206661696c6564000000000000000000000081525060200191505060405180910390fd5b8173ffffffffffffffffffffffffffffffffffffffff163373ffffffffffffffffffffffffffffffffffffffff167f508982b75b84bc9a8a2967d1c2cba38016d566bef29221f597ce59270a3b9b47600260003373ffffffffffffffffffffffffffffffffffffffff1673ffffffffffffffffffffffffffffffffffffffff16815260200190815260200160002060000154600260003373ffffffffffffffffffffffffffffffffffffffff1673ffffffffffffffffffffffffffffffffffffffff168152602001908152602001600020600101548560405180848152602001838152602001826fffffffffffffffffffffffffffffffff166fffffffffffffffffffffffffffffffff168152602001935050505060405180910390a35050565b61145e610be4565b151561146957600080fd5b826fffffffffffffffffffffffffffffffff16600160003373ffffffffffffffffffffffffffffffffffffffff1673ffffffffffffffffffffffffffffffffffffffff16815260200190815260200160002060008773ffffffffffffffffffffffffffffffffffffffff1673ffffffffffffffffffffffffffffffffffffffff16815260200190815260200160002060009054906101000a90046fffffffffffffffffffffffffffffffff166fffffffffffffffffffffffffffffffff16101515156115c3576040517f08c379a00000000000000000000000000000000000000000000000000000000081526004018080602001828103825260268152602001807f417474656d707420746f207769746864726177206d6f7265207468616e20757381526020017f657220686173000000000000000000000000000000000000000000000000000081525060400191505060405180910390fd5b611692836fffffffffffffffffffffffffffffffff16600160003373ffffffffffffffffffffffffffffffffffffffff1673ffffffffffffffffffffffffffffffffffffffff16815260200190815260200160002060008873ffffffffffffffffffffffffffffffffffffffff1673ffffffffffffffffffffffffffffffffffffffff16815260200190815260200160002060009054906101000a90046fffffffffffffffffffffffffffffffff166fffffffffffffffffffffffffffffffff16611c9b90919063ffffffff16565b508473ffffffffffffffffffffffffffffffffffffffff1663a9059cbb33856040518363ffffffff167c0100000000000000000000000000000000000000000000000000000000028152600401808373ffffffffffffffffffffffffffffffffffffffff1673ffffffffffffffffffffffffffffffffffffffff168152602001826fffffffffffffffffffffffffffffffff16815260200192505050602060405180830381600087803b15801561174857600080fd5b505af115801561175c573d6000803e3d6000fd5b505050506040513d602081101561177257600080fd5b810190808051906020019092919050505015156117f7576040517f08c379a00000000000000000000000000000000000000000000000000000000081526004018080602001828103825260158152602001807f546f6b656e207472616e73666572206661696c6564000000000000000000000081525060200191505060405180910390fd5b8473ffffffffffffffffffffffffffffffffffffffff163373ffffffffffffffffffffffffffffffffffffffff167ff7c94207a71e9e28815faa70ca42021f47a1d25c25fbec0973eb7beb92f421928560405180826fffffffffffffffffffffffffffffffff166fffffffffffffffffffffffffffffffff16815260200191505060405180910390a35050505050565b61188f610be4565b151561189a57600080fd5b80600960006101000a81548173ffffffffffffffffffffffffffffffffffffffff021916908373ffffffffffffffffffffffffffffffffffffffff16021790555050565b6118e6610be4565b15156118f157600080fd5b80600860006101000a81548173ffffffffffffffffffffffffffffffffffffffff021916908373ffffffffffffffffffffffffffffffffffffffff16021790555050565b61193d610be4565b151561194857600080fd5b61195181611cbd565b50565b600080828401905083811015151561196b57600080fd5b8091505092915050565b600281111515156119ee576040517f08c379a00000000000000000000000000000000000000000000000000000000081526004018080602001828103825260138152602001807f4f6e6c79203220696e64657820736c6f7473210000000000000000000000000081525060200191505060405180910390fd5b60006004828154811015156119ff57fe5b906000526020600020016000815481101515611a1757fe5b90600052602060002001819055506000600482815481101515611a3657fe5b906000526020600020016001815481101515611a4e57fe5b90600052602060002001819055506000600582815481101515611a6d57fe5b906000526020600020018190555050565b600060046000815481101515611a9057fe5b906000526020600020016000815481101515611aa857fe5b90600052602060002001541415611b5357816000015160046000815481101515611ace57fe5b906000526020600020016000815481101515611ae657fe5b9060005260206000200181905550816020015160046000815481101515611b0957fe5b906000526020600020016001815481101515611b2157fe5b90600052602060002001819055508060056000815481101515611b4057fe5b9060005260206000200181905550611c97565b600060046001815481101515611b6557fe5b906000526020600020016000815481101515611b7d57fe5b90600052602060002001541415611c2857816000015160046001815481101515611ba357fe5b906000526020600020016000815481101515611bbb57fe5b9060005260206000200181905550816020015160046001815481101515611bde57fe5b906000526020600020016001815481101515611bf657fe5b90600052602060002001819055508060056001815481101515611c1557fe5b9060005260206000200181905550611c96565b6040517f08c379a00000000000000000000000000000000000000000000000000000000081526004018080602001828103825260128152602001807f4e6f20737061636520696e20517565756521000000000000000000000000000081525060200191505060405180910390fd5b5b5050565b6000828211151515611cac57600080fd5b600082840390508091505092915050565b600073ffffffffffffffffffffffffffffffffffffffff168173ffffffffffffffffffffffffffffffffffffffff1614151515611cf957600080fd5b8073ffffffffffffffffffffffffffffffffffffffff166000809054906101000a900473ffffffffffffffffffffffffffffffffffffffff1673ffffffffffffffffffffffffffffffffffffffff167f8be0079c531659141344cd1fd0a4f28419497f9722a3daafe3b4186f6b6457e060405160405180910390a3806000806101000a81548173ffffffffffffffffffffffffffffffffffffffff021916908373ffffffffffffffffffffffffffffffffffffffff16021790555050565b61018060405190810160405280600c9060208202803883398082019150509050509056fea165627a7a72305820a2db24139ce9aa8cec68ee6a6fb8c6e18a9596096110851800dabefc275cfec80029",
  "source": "pragma solidity 0.5.0;\n\nimport 'openzeppelin-solidity/contracts/ownership/Ownable.sol';\nimport 'openzeppelin-solidity/contracts/token/ERC20/ERC20.sol';\nimport 'openzeppelin-solidity/contracts/math/SafeMath.sol';\nimport './verifiers/IDepositVerifier.sol';\nimport './verifiers/ITransferVerifier.sol';\nimport './verifiers/IWithdrawVerifier.sol';\n\ncontract Main is Ownable {\n    using SafeMath for uint256;\n    using SafeMath for uint128;\n\n    struct PublicKey {\n        uint256 x;\n        uint256 y;\n    }\n\n    mapping (address => mapping (address => uint128 )) tokenBalances;\n    mapping (address => PublicKey) userKeys;\n    uint256 userCount;\n\n    uint256[][] publicKeyQueue;\n    uint256[] amountQueue;\n\n    uint256 constant tokenId = 1;\n\n    uint256 state;\n    IDepositVerifier depositVerifier;\n    ITransferVerifier transferVerifier;\n    IWithdrawVerifier withdrawVerifier;\n    \n    event KeyRegistered(address indexed user, uint256 x, uint256 y);\n    event Deposit(address indexed user, uint256 x, uint256 y, address indexed token, uint128 amount);\n    event Withdraw(address indexed user, address indexed token, uint128 amount);\n    event StateUpdated(uint256 oldState, uint256 newState);\n    event StateRejected(uint256 oldState, uint256 rejectedState);\n    \n    // User Functions\n\n    function registerKey(uint256 x, uint256 y) public {\n        // require(userKeys[msg.sender] == 0, \"User has existing key\");\n        userKeys[msg.sender] = PublicKey(x,y);\n        emit KeyRegistered(msg.sender, x, y);\n    }\n\n    function getKey(address _user) public view returns(uint256, uint256) {\n        return (userKeys[_user].x, userKeys[_user].y);\n    }\n    \n    function getMyKey() public view returns(uint256, uint256) {\n        return (userKeys[msg.sender].x, userKeys[msg.sender].y);\n    }\n    \n    // Requires approval for ERC20 token first\n    function depositToken(address _token, uint128 _amount) public {\n        require(tokenBalances[msg.sender][_token] == 0, \"Only one deposit per token for now!\");\n        require(ERC20(_token).allowance(msg.sender, address(this)) >= _amount, \"Not enough allowance\");\n        \n        tokenBalances[msg.sender][_token].add(_amount);\n        addToQueue(userKeys[msg.sender], _amount);\n\n        require(ERC20(_token).transferFrom(msg.sender, address(this), _amount), \"Token transfer failed\");\n        emit Deposit(msg.sender, userKeys[msg.sender].x, userKeys[msg.sender].y, _token, _amount);\n    }\n\n    function addToQueue(PublicKey memory _publicKey, uint256 _amount) internal {\n        // If zero slot empty\n        if (publicKeyQueue[0][0] == 0) {\n            publicKeyQueue[0][0] = _publicKey.x;\n            publicKeyQueue[0][1] = _publicKey.y;\n            amountQueue[0] = _amount;\n        } \n        \n        // If one slot empty\n        else if (publicKeyQueue[1][0] == 0) {\n            publicKeyQueue[1][0] = _publicKey.x;\n            publicKeyQueue[1][1] = _publicKey.y;\n            amountQueue[1] = _amount;\n        }\n\n        else {\n            revert(\"No space in Queue!\");\n        }        \n    }\n\n    function clearQueueIndex(uint256 _index) internal {\n        require(_index <= 2, \"Only 2 index slots!\");\n        publicKeyQueue[_index][0] = 0;\n        publicKeyQueue[_index][1] = 0;\n        amountQueue[_index] = 0;\n    }\n    \n    function withdrawToken(address _token, address _recipient, uint128 _amount, uint256 _proof, uint256 _newState) public onlyOwner() {\n        //TODO: We will get this value from the state\n        require(tokenBalances[msg.sender][_token] >= _amount, \"Attempt to withdraw more than user has\");\n\n        tokenBalances[msg.sender][_token].sub(_amount);\n        require(ERC20(_token).transfer(msg.sender, _amount), \"Token transfer failed\");\n        emit Withdraw(msg.sender, _token, _amount);\n    }\n\n    // State Functions\n    function getState() public view returns(uint256) {\n        return state;\n    }\n\n    function setState(uint256 _newState) public onlyOwner() {\n        state = _newState;\n    }\n\n    // Input = Proof\n    function verifyDeposit(uint[2] memory a, uint[2][2] memory b, uint[2] memory c, uint256 _newState) public onlyOwner() returns(bool) {\n                uint256 _newUserCount = userCount.add(2);\n\n                uint256[12] memory input = [\n                state, \n                userCount, \n                publicKeyQueue[0][0], \n                publicKeyQueue[0][1], \n                publicKeyQueue[1][0], \n                publicKeyQueue[1][1], \n                amountQueue[0],\n                amountQueue[1],\n                tokenId,\n                tokenId,\n                _newState,\n                _newUserCount\n                ];\n\n                require(depositVerifier.verifyProof(a, b, c, input));\n                clearQueueIndex(0);\n                clearQueueIndex(1);\n            }\n\n    function setDepositVerifier(address _newAddress) public onlyOwner() {\n        depositVerifier = IDepositVerifier(_newAddress);\n    }\n\n    function setTransferVerifier(address _newAddress) public onlyOwner() {\n        transferVerifier = ITransferVerifier(_newAddress);\n    }\n\n    function setWithdrawVerifier(address _newAddress) public onlyOwner() {\n        withdrawVerifier = IWithdrawVerifier(_newAddress);\n    }\n}\n",
  "sourcePath": "/Users/thomas/Code/xRollup/ethereum/contracts/Main.sol",
  "compiler": {
    "name": "solc",
    "version": "0.5.0+commit.1d4f565a.Emscripten.clang"
  },
  "schemaVersion": "3.0.2",
  "updatedAt": "2019-03-10T01:56:23.724Z",
  "devdoc": {
    "methods": {
      "isOwner()": {
        "return": "true if `msg.sender` is the owner of the contract."
      },
      "owner()": {
        "return": "the address of the owner."
      },
      "renounceOwnership()": {
        "details": "Allows the current owner to relinquish control of the contract."
      },
      "transferOwnership(address)": {
        "details": "Allows the current owner to transfer control of the contract to a newOwner.",
        "params": {
          "newOwner": "The address to transfer ownership to."
        }
      }
    }
  },
  "userdoc": {
    "methods": {
      "renounceOwnership()": {
        "notice": "Renouncing to ownership will leave the contract without an owner. It will not be possible to call the functions with the `onlyOwner` modifier anymore."
      }
    }
  }
}